{
  "abi": [
    {
      "inputs": [],
      "stateMutability": "nonpayable",
      "type": "constructor"
    },
    {
      "inputs": [],
      "name": "CallerIsNotInvestmentHandler",
      "type": "error"
    },
    {
      "anonymous": false,
      "inputs": [
        {
          "indexed": false,
          "internalType": "uint8",
          "name": "version",
          "type": "uint8"
        }
      ],
      "name": "Initialized",
      "type": "event"
    },
    {
      "anonymous": false,
      "inputs": [
        {
          "indexed": false,
          "internalType": "address",
          "name": "saftWallet",
          "type": "address"
        }
      ],
      "name": "NewSaftWalletCreated",
      "type": "event"
    },
    {
      "inputs": [
        {
          "internalType": "address",
          "name": "_projectToken",
          "type": "address"
        },
        {
          "internalType": "address",
          "name": "_projectTokenDepositor",
          "type": "address"
        },
        {
          "internalType": "address",
          "name": "_investmentHandler",
          "type": "address"
        }
      ],
      "name": "createNewSaftWallet",
      "outputs": [
        {
          "internalType": "address",
          "name": "",
          "type": "address"
        }
      ],
      "stateMutability": "nonpayable",
      "type": "function"
    },
    {
      "inputs": [],
      "name": "initialize",
      "outputs": [],
      "stateMutability": "nonpayable",
      "type": "function"
    }
  ],
  "bytecode": {
    "object": "0x608060405234801561001057600080fd5b5061001961001e565b6100dd565b600054610100900460ff161561008a5760405162461bcd60e51b815260206004820152602760248201527f496e697469616c697a61626c653a20636f6e747261637420697320696e697469604482015266616c697a696e6760c81b606482015260840160405180910390fd5b60005460ff908116146100db576000805460ff191660ff9081179091556040519081527f7f26b83ff96e1f2b6a682f133852f6798a09c465da95921460cefb38474024989060200160405180910390a15b565b6106f6806100ec6000396000f3fe608060405234801561001057600080fd5b50600436106100365760003560e01c80638129fc1c1461003b578063acfd7bf614610045575b600080fd5b610043610074565b005b61005861005336600461038d565b6101d1565b6040516001600160a01b03909116815260200160405180910390f35b600054610100900460ff16158080156100945750600054600160ff909116105b806100ae5750303b1580156100ae575060005460ff166001145b6101165760405162461bcd60e51b815260206004820152602e60248201527f496e697469616c697a61626c653a20636f6e747261637420697320616c72656160448201526d191e481a5b9a5d1a585b1a5e995960921b60648201526084015b60405180910390fd5b6000805460ff191660011790558015610139576000805461ff0019166101001790555b60405161014590610369565b604051809103906000f080158015610161573d6000803e3d6000fd5b50600060026101000a8154816001600160a01b0302191690836001600160a01b0316021790555080156101ce576000805461ff0019169055604051600181527f7f26b83ff96e1f2b6a682f133852f6798a09c465da95921460cefb38474024989060200160405180910390a15b50565b6001546000906001600160a01b031633146101ff5760405163030a74c560e01b815260040160405180910390fd5b6000805461021b906201000090046001600160a01b03166102cf565b60405163c0c53b8b60e01b81526001600160a01b038781166004830152868116602483015285811660448301529192509082169063c0c53b8b90606401600060405180830381600087803b15801561027257600080fd5b505af1158015610286573d6000803e3d6000fd5b50506040516001600160a01b03841681527ff9cebbeee3c12675e7a307e46dd937a2836dd0eba27ac3ed236c75394f005e169250602001905060405180910390a1509392505050565b6000763d602d80600a3d3981f3363d3d373d3d3d363d730000008260601b60e81c176000526e5af43d82803e903d91602b57fd5bf38260781b17602052603760096000f090506001600160a01b0381166103645760405162461bcd60e51b8152602060048201526016602482015275115490cc4c4d8dce8818dc99585d194819985a5b195960521b604482015260640161010d565b919050565b6102f0806103d183390190565b80356001600160a01b038116811461036457600080fd5b6000806000606084860312156103a257600080fd5b6103ab84610376565b92506103b960208501610376565b91506103c760408501610376565b9050925092509256fe608060405234801561001057600080fd5b506102d0806100206000396000f3fe608060405234801561001057600080fd5b50600436106100365760003560e01c806326a4e8d21461003b578063c0c53b8b14610050575b600080fd5b61004e610049366004610235565b610063565b005b61004e61005e366004610257565b6100b8565b6002546001600160a01b0316331461008e5760405163030a74c560e01b815260040160405180910390fd5b600080546001600160a01b03909216620100000262010000600160b01b0319909216919091179055565b600054610100900460ff16158080156100d85750600054600160ff909116105b806100f25750303b1580156100f2575060005460ff166001145b6101595760405162461bcd60e51b815260206004820152602e60248201527f496e697469616c697a61626c653a20636f6e747261637420697320616c72656160448201526d191e481a5b9a5d1a585b1a5e995960921b606482015260840160405180910390fd5b6000805460ff19166001179055801561017c576000805461ff0019166101001790555b600080546001600160a01b03808716620100000262010000600160b01b031990921691909117909155600180548583166001600160a01b03199182161790915560028054928516929091169190911790558015610213576000805461ff0019169055604051600181527f7f26b83ff96e1f2b6a682f133852f6798a09c465da95921460cefb38474024989060200160405180910390a15b50505050565b80356001600160a01b038116811461023057600080fd5b919050565b60006020828403121561024757600080fd5b61025082610219565b9392505050565b60008060006060848603121561026c57600080fd5b61027584610219565b925061028360208501610219565b915061029160408501610219565b9050925092509256fea264697066735822122002b0b347344485b12068c520a694b2273745ab0cd2ab03eb4910a7268839ccb464736f6c63430008130033a26469706673582212207e0486cc2e6bb1788ad9da74a8a2731087861bebf87be7800dd3805ab282af5964736f6c63430008130033",
    "linkReferences": {}
  },
  "methodIdentifiers": {
    "createNewSaftWallet(address,address,address)": "acfd7bf6",
    "initialize()": "8129fc1c"
  },
  "id": 3
}