{
  "abi": [
    {
      "inputs": [],
      "stateMutability": "nonpayable",
      "type": "constructor"
    },
    {
      "inputs": [],
      "name": "CallerIsNotInvestmentHandler",
      "type": "error"
    },
    {
      "anonymous": false,
      "inputs": [
        {
          "indexed": false,
          "internalType": "address",
          "name": "_projectToken",
          "type": "address"
        },
        {
          "indexed": false,
          "internalType": "address",
          "name": "_projectTokenDepositor",
          "type": "address"
        },
        {
          "indexed": false,
          "internalType": "address",
          "name": "_investmentHandler",
          "type": "address"
        }
      ],
      "name": "Initialization",
      "type": "event"
    },
    {
      "anonymous": false,
      "inputs": [
        {
          "indexed": false,
          "internalType": "uint8",
          "name": "version",
          "type": "uint8"
        }
      ],
      "name": "Initialized",
      "type": "event"
    },
    {
      "anonymous": false,
      "inputs": [
        {
          "indexed": false,
          "internalType": "address",
          "name": "_projectToken",
          "type": "address"
        }
      ],
      "name": "TokenAddressSet",
      "type": "event"
    },
    {
      "inputs": [
        {
          "internalType": "address",
          "name": "_projectToken",
          "type": "address"
        },
        {
          "internalType": "address",
          "name": "_projectTokenDepositor",
          "type": "address"
        },
        {
          "internalType": "address",
          "name": "_investmentHandler",
          "type": "address"
        }
      ],
      "name": "initialize",
      "outputs": [],
      "stateMutability": "nonpayable",
      "type": "function"
    },
    {
      "inputs": [
        {
          "internalType": "address",
          "name": "_projectToken",
          "type": "address"
        }
      ],
      "name": "setTokenAddress",
      "outputs": [],
      "stateMutability": "nonpayable",
      "type": "function"
    }
  ],
  "bytecode": {
    "object": "0x608060405234801561001057600080fd5b506103de806100206000396000f3fe608060405234801561001057600080fd5b50600436106100365760003560e01c806326a4e8d21461003b578063c0c53b8b14610050575b600080fd5b61004e610049366004610321565b610063565b005b61004e61005e366004610343565b6100ec565b6002546001600160a01b0316331461008e5760405163030a74c560e01b815260040160405180910390fd5b6000805462010000600160b01b031916620100006001600160a01b038416908102919091179091556040519081527fd82cad5fdc98633445b90f806f2e1a61a5409f92187ee9cd87f1da18c90692669060200160405180910390a150565b600054610100900460ff161580801561010c5750600054600160ff909116105b806101265750303b158015610126575060005460ff166001145b61018d5760405162461bcd60e51b815260206004820152602e60248201527f496e697469616c697a61626c653a20636f6e747261637420697320616c72656160448201526d191e481a5b9a5d1a585b1a5e995960921b606482015260840160405180910390fd5b6000805460ff1916600117905580156101b0576000805461ff0019166101001790555b6000805462010000600160b01b031916620100006001600160a01b0387811682029290921792839055600180546001600160a01b0319908116888516179091556002805490911686841690811790915560405163095ea7b360e01b8152600481019190915260001960248201529204169063095ea7b3906044016020604051808303816000875af1158015610249573d6000803e3d6000fd5b505050506040513d601f19601f8201168201806040525081019061026d9190610386565b50604080516001600160a01b038681168252858116602083015284168183015290517fc7b8357decc032a76f492d8cac125dfdb901136ed370dc5977fe892418c9f1f29181900360600190a180156102ff576000805461ff0019169055604051600181527f7f26b83ff96e1f2b6a682f133852f6798a09c465da95921460cefb38474024989060200160405180910390a15b50505050565b80356001600160a01b038116811461031c57600080fd5b919050565b60006020828403121561033357600080fd5b61033c82610305565b9392505050565b60008060006060848603121561035857600080fd5b61036184610305565b925061036f60208501610305565b915061037d60408501610305565b90509250925092565b60006020828403121561039857600080fd5b8151801515811461033c57600080fdfea26469706673582212209bde1a7f4f375bbfbd5f82af2cd533504b6395f3cda364c808c4d872bd1911bc64736f6c63430008130033",
    "linkReferences": {}
  },
  "methodIdentifiers": {
    "initialize(address,address,address)": "c0c53b8b",
    "setTokenAddress(address)": "26a4e8d2"
  },
  "id": 1
}