{
  "abi": [
    {
      "inputs": [],
      "stateMutability": "nonpayable",
      "type": "constructor"
    },
    {
      "inputs": [],
      "name": "CallerIsNotInvestmentHandler",
      "type": "error"
    },
    {
      "anonymous": false,
      "inputs": [
        {
          "indexed": false,
          "internalType": "uint8",
          "name": "version",
          "type": "uint8"
        }
      ],
      "name": "Initialized",
      "type": "event"
    },
    {
      "inputs": [
        {
          "internalType": "address",
          "name": "_projectToken",
          "type": "address"
        },
        {
          "internalType": "address",
          "name": "_projectTokenDepositor",
          "type": "address"
        },
        {
          "internalType": "address",
          "name": "_investmentHandler",
          "type": "address"
        }
      ],
      "name": "initialize",
      "outputs": [],
      "stateMutability": "nonpayable",
      "type": "function"
    },
    {
      "inputs": [
        {
          "internalType": "address",
          "name": "_projectToken",
          "type": "address"
        }
      ],
      "name": "setTokenAddress",
      "outputs": [],
      "stateMutability": "nonpayable",
      "type": "function"
    }
  ],
  "bytecode": {
    "object": "0x608060405234801561001057600080fd5b506102d0806100206000396000f3fe608060405234801561001057600080fd5b50600436106100365760003560e01c806326a4e8d21461003b578063c0c53b8b14610050575b600080fd5b61004e610049366004610235565b610063565b005b61004e61005e366004610257565b6100b8565b6002546001600160a01b0316331461008e5760405163030a74c560e01b815260040160405180910390fd5b600080546001600160a01b03909216620100000262010000600160b01b0319909216919091179055565b600054610100900460ff16158080156100d85750600054600160ff909116105b806100f25750303b1580156100f2575060005460ff166001145b6101595760405162461bcd60e51b815260206004820152602e60248201527f496e697469616c697a61626c653a20636f6e747261637420697320616c72656160448201526d191e481a5b9a5d1a585b1a5e995960921b606482015260840160405180910390fd5b6000805460ff19166001179055801561017c576000805461ff0019166101001790555b600080546001600160a01b03808716620100000262010000600160b01b031990921691909117909155600180548583166001600160a01b03199182161790915560028054928516929091169190911790558015610213576000805461ff0019169055604051600181527f7f26b83ff96e1f2b6a682f133852f6798a09c465da95921460cefb38474024989060200160405180910390a15b50505050565b80356001600160a01b038116811461023057600080fd5b919050565b60006020828403121561024757600080fd5b61025082610219565b9392505050565b60008060006060848603121561026c57600080fd5b61027584610219565b925061028360208501610219565b915061029160408501610219565b9050925092509256fea264697066735822122002b0b347344485b12068c520a694b2273745ab0cd2ab03eb4910a7268839ccb464736f6c63430008130033",
    "linkReferences": {}
  },
  "methodIdentifiers": {
    "initialize(address,address,address)": "c0c53b8b",
    "setTokenAddress(address)": "26a4e8d2"
  },
  "id": 2
}