{
  "abi": [
    {
      "inputs": [],
      "stateMutability": "nonpayable",
      "type": "constructor"
    },
    {
      "anonymous": false,
      "inputs": [],
      "name": "AccessManagerSet",
      "type": "event"
    },
    {
      "anonymous": false,
      "inputs": [
        {
          "indexed": false,
          "internalType": "uint8",
          "name": "version",
          "type": "uint8"
        }
      ],
      "name": "Initialized",
      "type": "event"
    },
    {
      "anonymous": false,
      "inputs": [],
      "name": "InvestmentAdded",
      "type": "event"
    },
    {
      "anonymous": false,
      "inputs": [],
      "name": "InvestmentModified",
      "type": "event"
    },
    {
      "anonymous": false,
      "inputs": [],
      "name": "InvestmentPhaseSet",
      "type": "event"
    },
    {
      "anonymous": false,
      "inputs": [],
      "name": "InvestmentRemoved",
      "type": "event"
    },
    {
      "anonymous": false,
      "inputs": [
        {
          "indexed": true,
          "internalType": "address",
          "name": "previousOwner",
          "type": "address"
        },
        {
          "indexed": true,
          "internalType": "address",
          "name": "newOwner",
          "type": "address"
        }
      ],
      "name": "OwnershipTransferred",
      "type": "event"
    },
    {
      "anonymous": false,
      "inputs": [],
      "name": "SAFTWalletFactorySet",
      "type": "event"
    },
    {
      "inputs": [],
      "name": "accessManager",
      "outputs": [
        {
          "internalType": "contract IAccessManager",
          "name": "",
          "type": "address"
        }
      ],
      "stateMutability": "view",
      "type": "function"
    },
    {
      "inputs": [],
      "name": "addInvestment",
      "outputs": [],
      "stateMutability": "nonpayable",
      "type": "function"
    },
    {
      "inputs": [],
      "name": "claimAllocation",
      "outputs": [],
      "stateMutability": "nonpayable",
      "type": "function"
    },
    {
      "inputs": [],
      "name": "computeUserTotalAllocationForInvesment",
      "outputs": [
        {
          "internalType": "uint256",
          "name": "",
          "type": "uint256"
        }
      ],
      "stateMutability": "view",
      "type": "function"
    },
    {
      "inputs": [],
      "name": "getTotalClaimedForInvestment",
      "outputs": [
        {
          "internalType": "uint256",
          "name": "",
          "type": "uint256"
        }
      ],
      "stateMutability": "view",
      "type": "function"
    },
    {
      "inputs": [],
      "name": "getUserInvestmentIds",
      "outputs": [
        {
          "internalType": "uint256[]",
          "name": "",
          "type": "uint256[]"
        }
      ],
      "stateMutability": "view",
      "type": "function"
    },
    {
      "inputs": [],
      "name": "initialize",
      "outputs": [],
      "stateMutability": "nonpayable",
      "type": "function"
    },
    {
      "inputs": [],
      "name": "invest",
      "outputs": [],
      "stateMutability": "nonpayable",
      "type": "function"
    },
    {
      "inputs": [],
      "name": "modifyInvestment",
      "outputs": [],
      "stateMutability": "nonpayable",
      "type": "function"
    },
    {
      "inputs": [],
      "name": "owner",
      "outputs": [
        {
          "internalType": "address",
          "name": "",
          "type": "address"
        }
      ],
      "stateMutability": "view",
      "type": "function"
    },
    {
      "inputs": [],
      "name": "removeInvestment",
      "outputs": [],
      "stateMutability": "nonpayable",
      "type": "function"
    },
    {
      "inputs": [],
      "name": "renounceOwnership",
      "outputs": [],
      "stateMutability": "nonpayable",
      "type": "function"
    },
    {
      "inputs": [],
      "name": "saftWalletFactory",
      "outputs": [
        {
          "internalType": "contract ISAFTWalletFactory",
          "name": "",
          "type": "address"
        }
      ],
      "stateMutability": "view",
      "type": "function"
    },
    {
      "inputs": [],
      "name": "setAccessManager",
      "outputs": [],
      "stateMutability": "nonpayable",
      "type": "function"
    },
    {
      "inputs": [],
      "name": "setInvestmentPhase",
      "outputs": [],
      "stateMutability": "nonpayable",
      "type": "function"
    },
    {
      "inputs": [],
      "name": "setSAFTWalletFactory",
      "outputs": [],
      "stateMutability": "nonpayable",
      "type": "function"
    },
    {
      "inputs": [
        {
          "internalType": "address",
          "name": "newOwner",
          "type": "address"
        }
      ],
      "name": "transferOwnership",
      "outputs": [],
      "stateMutability": "nonpayable",
      "type": "function"
    }
  ],
  "bytecode": {
    "object": "0x608060405234801561001057600080fd5b5061001961001e565b6100dd565b600054610100900460ff161561008a5760405162461bcd60e51b815260206004820152602760248201527f496e697469616c697a61626c653a20636f6e747261637420697320696e697469604482015266616c697a696e6760c81b606482015260840160405180910390fd5b60005460ff908116146100db576000805460ff191660ff9081179091556040519081527f7f26b83ff96e1f2b6a682f133852f6798a09c465da95921460cefb38474024989060200160405180910390a15b565b610542806100ec6000396000f3fe608060405234801561001057600080fd5b506004361061010b5760003560e01c80638129fc1c116100a2578063e691108b11610071578063e691108b14610110578063e8b5e51f14610110578063e8da33301461016e578063f2fde38b14610181578063fdcb60681461019457600080fd5b80638129fc1c146101415780638da5cb5b14610149578063cf5a4b501461012a578063d2d1fb251461011057600080fd5b80634bca580d116100de5780634bca580d14610110578063565c6f951461012a5780635fa6711014610110578063715018a61461013957600080fd5b8063122d19a4146101105780632278112e146101105780632cd9a6fa1461011257806349cd1e9314610110575b600080fd5b005b6060604051610121919061044d565b60405180910390f35b60405160008152602001610121565b6101106101a9565b6101106101bb565b6033546001600160a01b03165b6040516001600160a01b039091168152602001610121565b606654610156906001600160a01b031681565b61011061018f366004610491565b6102d1565b606554610156906001600160a01b031681565b565b6101b1610347565b6101a760006103a1565b600054610100900460ff16158080156101db5750600054600160ff909116105b806101f55750303b1580156101f5575060005460ff166001145b61025d5760405162461bcd60e51b815260206004820152602e60248201527f496e697469616c697a61626c653a20636f6e747261637420697320616c72656160448201526d191e481a5b9a5d1a585b1a5e995960921b60648201526084015b60405180910390fd5b6000805460ff191660011790558015610280576000805461ff0019166101001790555b6102886103f3565b80156102ce576000805461ff0019169055604051600181527f7f26b83ff96e1f2b6a682f133852f6798a09c465da95921460cefb38474024989060200160405180910390a15b50565b6102d9610347565b6001600160a01b03811661033e5760405162461bcd60e51b815260206004820152602660248201527f4f776e61626c653a206e6577206f776e657220697320746865207a65726f206160448201526564647265737360d01b6064820152608401610254565b6102ce816103a1565b6033546001600160a01b031633146101a75760405162461bcd60e51b815260206004820181905260248201527f4f776e61626c653a2063616c6c6572206973206e6f7420746865206f776e65726044820152606401610254565b603380546001600160a01b038381166001600160a01b0319831681179093556040519116919082907f8be0079c531659141344cd1fd0a4f28419497f9722a3daafe3b4186f6b6457e090600090a35050565b600054610100900460ff1661041a5760405162461bcd60e51b8152600401610254906104c1565b6101a7600054610100900460ff166104445760405162461bcd60e51b8152600401610254906104c1565b6101a7336103a1565b6020808252825182820181905260009190848201906040850190845b8181101561048557835183529284019291840191600101610469565b50909695505050505050565b6000602082840312156104a357600080fd5b81356001600160a01b03811681146104ba57600080fd5b9392505050565b6020808252602b908201527f496e697469616c697a61626c653a20636f6e7472616374206973206e6f74206960408201526a6e697469616c697a696e6760a81b60608201526080019056fea264697066735822122005eeb501cc4345f111aabfc2d3377904ef52a9cf0c2dc2a07cb2c2d29c573bb564736f6c63430008130033",
    "linkReferences": {}
  },
  "methodIdentifiers": {
    "accessManager()": "fdcb6068",
    "addInvestment()": "2278112e",
    "claimAllocation()": "d2d1fb25",
    "computeUserTotalAllocationForInvesment()": "565c6f95",
    "getTotalClaimedForInvestment()": "cf5a4b50",
    "getUserInvestmentIds()": "2cd9a6fa",
    "initialize()": "8129fc1c",
    "invest()": "e8b5e51f",
    "modifyInvestment()": "49cd1e93",
    "owner()": "8da5cb5b",
    "removeInvestment()": "5fa67110",
    "renounceOwnership()": "715018a6",
    "saftWalletFactory()": "e8da3330",
    "setAccessManager()": "122d19a4",
    "setInvestmentPhase()": "e691108b",
    "setSAFTWalletFactory()": "4bca580d",
    "transferOwnership(address)": "f2fde38b"
  },
  "id": 1
}