{
  "abi": [
    {
      "inputs": [],
      "stateMutability": "nonpayable",
      "type": "constructor"
    },
    {
      "anonymous": false,
      "inputs": [],
      "name": "AccessManagerSet",
      "type": "event"
    },
    {
      "anonymous": false,
      "inputs": [
        {
          "indexed": false,
          "internalType": "uint8",
          "name": "version",
          "type": "uint8"
        }
      ],
      "name": "Initialized",
      "type": "event"
    },
    {
      "anonymous": false,
      "inputs": [],
      "name": "InvestmentAdded",
      "type": "event"
    },
    {
      "anonymous": false,
      "inputs": [],
      "name": "InvestmentModified",
      "type": "event"
    },
    {
      "anonymous": false,
      "inputs": [],
      "name": "InvestmentPhaseSet",
      "type": "event"
    },
    {
      "anonymous": false,
      "inputs": [],
      "name": "InvestmentRemoved",
      "type": "event"
    },
    {
      "anonymous": false,
      "inputs": [
        {
          "indexed": true,
          "internalType": "address",
          "name": "previousOwner",
          "type": "address"
        },
        {
          "indexed": true,
          "internalType": "address",
          "name": "newOwner",
          "type": "address"
        }
      ],
      "name": "OwnershipTransferred",
      "type": "event"
    },
    {
      "anonymous": false,
      "inputs": [
        {
          "indexed": false,
          "internalType": "address",
          "name": "account",
          "type": "address"
        }
      ],
      "name": "Paused",
      "type": "event"
    },
    {
      "anonymous": false,
      "inputs": [],
      "name": "SAFTWalletFactorySet",
      "type": "event"
    },
    {
      "anonymous": false,
      "inputs": [
        {
          "indexed": false,
          "internalType": "address",
          "name": "account",
          "type": "address"
        }
      ],
      "name": "Unpaused",
      "type": "event"
    },
    {
      "inputs": [],
      "name": "accessManager",
      "outputs": [
        {
          "internalType": "contract IAccessManager",
          "name": "",
          "type": "address"
        }
      ],
      "stateMutability": "view",
      "type": "function"
    },
    {
      "inputs": [],
      "name": "addInvestment",
      "outputs": [],
      "stateMutability": "nonpayable",
      "type": "function"
    },
    {
      "inputs": [],
      "name": "claimAllocation",
      "outputs": [],
      "stateMutability": "nonpayable",
      "type": "function"
    },
    {
      "inputs": [],
      "name": "computeUserTotalAllocationForInvesment",
      "outputs": [
        {
          "internalType": "uint256",
          "name": "",
          "type": "uint256"
        }
      ],
      "stateMutability": "view",
      "type": "function"
    },
    {
      "inputs": [],
      "name": "getTotalClaimedForInvestment",
      "outputs": [
        {
          "internalType": "uint256",
          "name": "",
          "type": "uint256"
        }
      ],
      "stateMutability": "view",
      "type": "function"
    },
    {
      "inputs": [],
      "name": "getUserInvestmentIds",
      "outputs": [
        {
          "internalType": "uint256[]",
          "name": "",
          "type": "uint256[]"
        }
      ],
      "stateMutability": "view",
      "type": "function"
    },
    {
      "inputs": [],
      "name": "initialize",
      "outputs": [],
      "stateMutability": "nonpayable",
      "type": "function"
    },
    {
      "inputs": [],
      "name": "invest",
      "outputs": [],
      "stateMutability": "nonpayable",
      "type": "function"
    },
    {
      "inputs": [
        {
          "internalType": "uint256",
          "name": "",
          "type": "uint256"
        }
      ],
      "name": "investments",
      "outputs": [
        {
          "internalType": "address",
          "name": "projectToken",
          "type": "address"
        },
        {
          "components": [
            {
              "internalType": "enum InvestmentHandler.Phase",
              "name": "phase",
              "type": "uint8"
            },
            {
              "internalType": "uint256",
              "name": "startTime",
              "type": "uint256"
            },
            {
              "internalType": "uint256",
              "name": "endTime",
              "type": "uint256"
            }
          ],
          "internalType": "struct InvestmentHandler.AllocationPhase",
          "name": "allocationPhase",
          "type": "tuple"
        },
        {
          "internalType": "bytes32",
          "name": "root",
          "type": "bytes32"
        },
        {
          "internalType": "string",
          "name": "name",
          "type": "string"
        },
        {
          "internalType": "uint256",
          "name": "totalInvestedUsd",
          "type": "uint256"
        },
        {
          "internalType": "uint256",
          "name": "totalAllocatedUsd",
          "type": "uint256"
        },
        {
          "internalType": "uint256",
          "name": "totalTokensClaimed",
          "type": "uint256"
        },
        {
          "internalType": "uint256",
          "name": "totalTokensAllocated",
          "type": "uint256"
        }
      ],
      "stateMutability": "view",
      "type": "function"
    },
    {
      "inputs": [],
      "name": "manualAddContribution",
      "outputs": [],
      "stateMutability": "nonpayable",
      "type": "function"
    },
    {
      "inputs": [],
      "name": "modifyInvestment",
      "outputs": [],
      "stateMutability": "nonpayable",
      "type": "function"
    },
    {
      "inputs": [],
      "name": "owner",
      "outputs": [
        {
          "internalType": "address",
          "name": "",
          "type": "address"
        }
      ],
      "stateMutability": "view",
      "type": "function"
    },
    {
      "inputs": [],
      "name": "paused",
      "outputs": [
        {
          "internalType": "bool",
          "name": "",
          "type": "bool"
        }
      ],
      "stateMutability": "view",
      "type": "function"
    },
    {
      "inputs": [],
      "name": "removeInvestment",
      "outputs": [],
      "stateMutability": "nonpayable",
      "type": "function"
    },
    {
      "inputs": [],
      "name": "renounceOwnership",
      "outputs": [],
      "stateMutability": "nonpayable",
      "type": "function"
    },
    {
      "inputs": [],
      "name": "saftWalletFactory",
      "outputs": [
        {
          "internalType": "contract ISAFTWalletFactory",
          "name": "",
          "type": "address"
        }
      ],
      "stateMutability": "view",
      "type": "function"
    },
    {
      "inputs": [],
      "name": "setAccessManager",
      "outputs": [],
      "stateMutability": "nonpayable",
      "type": "function"
    },
    {
      "inputs": [],
      "name": "setInvestmentPhase",
      "outputs": [],
      "stateMutability": "nonpayable",
      "type": "function"
    },
    {
      "inputs": [],
      "name": "setSAFTWalletFactory",
      "outputs": [],
      "stateMutability": "nonpayable",
      "type": "function"
    },
    {
      "inputs": [
        {
          "internalType": "address",
          "name": "newOwner",
          "type": "address"
        }
      ],
      "name": "transferOwnership",
      "outputs": [],
      "stateMutability": "nonpayable",
      "type": "function"
    },
    {
      "inputs": [
        {
          "internalType": "address",
          "name": "",
          "type": "address"
        },
        {
          "internalType": "uint256",
          "name": "",
          "type": "uint256"
        }
      ],
      "name": "userInvestments",
      "outputs": [
        {
          "internalType": "uint256",
          "name": "totalInvestedUsd",
          "type": "uint256"
        },
        {
          "internalType": "uint256",
          "name": "totalAllocatedUsd",
          "type": "uint256"
        },
        {
          "internalType": "uint256",
          "name": "totalTokensClaimed",
          "type": "uint256"
        },
        {
          "internalType": "uint256",
          "name": "totalTokensAllocated",
          "type": "uint256"
        }
      ],
      "stateMutability": "view",
      "type": "function"
    }
  ],
  "bytecode": {
    "object": "0x608060405234801561001057600080fd5b5061001961001e565b6100dd565b600054610100900460ff161561008a5760405162461bcd60e51b815260206004820152602760248201527f496e697469616c697a61626c653a20636f6e747261637420697320696e697469604482015266616c697a696e6760c81b606482015260840160405180910390fd5b60005460ff908116146100db576000805460ff191660ff9081179091556040519081527f7f26b83ff96e1f2b6a682f133852f6798a09c465da95921460cefb38474024989060200160405180910390a15b565b6109bc806100ec6000396000f3fe608060405234801561001057600080fd5b50600436106101375760003560e01c80638da5cb5b116100b8578063e8b5e51f1161007c578063e8b5e51f1461013c578063e8da333014610210578063f2fde38b14610223578063fc825c591461013c578063fd345c8a14610236578063fdcb60681461025d57600080fd5b80638da5cb5b1461018b5780639244adcd146101b0578063cf5a4b5014610156578063d2d1fb251461013c578063e691108b1461013c57600080fd5b8063565c6f95116100ff578063565c6f95146101565780635c975abb146101655780635fa671101461013c578063715018a61461017b5780638129fc1c1461018357600080fd5b8063122d19a41461013c5780632278112e1461013c5780632cd9a6fa1461013e57806349cd1e931461013c5780634bca580d1461013c575b600080fd5b005b606060405161014d9190610750565b60405180910390f35b6040516000815260200161014d565b60655460ff16604051901515815260200161014d565b61013c610272565b61013c610284565b6033546001600160a01b03165b6040516001600160a01b03909116815260200161014d565b6101f06101be3660046107b0565b60ce60209081526000928352604080842090915290825290208054600182015460028301546003909301549192909184565b60408051948552602085019390935291830152606082015260800161014d565b60ca54610198906001600160a01b031681565b61013c6102313660046107da565b6103f2565b6102496102443660046107fc565b610468565b60405161014d989796959493929190610871565b60c954610198906001600160a01b031681565b565b61027a610586565b61027060006105e0565b600054610100900460ff16158080156102a45750600054600160ff909116105b806102be5750303b1580156102be575060005460ff166001145b6103265760405162461bcd60e51b815260206004820152602e60248201527f496e697469616c697a61626c653a20636f6e747261637420697320616c72656160448201526d191e481a5b9a5d1a585b1a5e995960921b60648201526084015b60405180910390fd5b6000805460ff191660011790558015610349576000805461ff0019166101001790555b610351610632565b610359610661565b610361610690565b60cb80546001600160a01b031990811673a0b86991c6218b36c1d19d4a2e9eb0ce3606eb481790915560cc805490911673dac17f958d2ee523a2206206994597c13d831ec717905580156103ef576000805461ff0019169055604051600181527f7f26b83ff96e1f2b6a682f133852f6798a09c465da95921460cefb38474024989060200160405180910390a15b50565b6103fa610586565b6001600160a01b03811661045f5760405162461bcd60e51b815260206004820152602660248201527f4f776e61626c653a206e6577206f776e657220697320746865207a65726f206160448201526564647265737360d01b606482015260840161031d565b6103ef816105e0565b60cd602052600090815260409081902080548251606081019093526001820180546001600160a01b039092169391829060ff1660038111156104ac576104ac610815565b60038111156104bd576104bd610815565b815260200160018201548152602001600282015481525050908060040154908060050180546104eb90610901565b80601f016020809104026020016040519081016040528092919081815260200182805461051790610901565b80156105645780601f1061053957610100808354040283529160200191610564565b820191906000526020600020905b81548152906001019060200180831161054757829003601f168201915b5050505050908060060154908060070154908060080154908060090154905088565b6033546001600160a01b031633146102705760405162461bcd60e51b815260206004820181905260248201527f4f776e61626c653a2063616c6c6572206973206e6f7420746865206f776e6572604482015260640161031d565b603380546001600160a01b038381166001600160a01b0319831681179093556040519116919082907f8be0079c531659141344cd1fd0a4f28419497f9722a3daafe3b4186f6b6457e090600090a35050565b600054610100900460ff166106595760405162461bcd60e51b815260040161031d9061093b565b6102706106bf565b600054610100900460ff166106885760405162461bcd60e51b815260040161031d9061093b565b6102706106ef565b600054610100900460ff166106b75760405162461bcd60e51b815260040161031d9061093b565b610270610722565b600054610100900460ff166106e65760405162461bcd60e51b815260040161031d9061093b565b610270336105e0565b600054610100900460ff166107165760405162461bcd60e51b815260040161031d9061093b565b6065805460ff19169055565b600054610100900460ff166107495760405162461bcd60e51b815260040161031d9061093b565b6001609755565b6020808252825182820181905260009190848201906040850190845b818110156107885783518352928401929184019160010161076c565b50909695505050505050565b80356001600160a01b03811681146107ab57600080fd5b919050565b600080604083850312156107c357600080fd5b6107cc83610794565b946020939093013593505050565b6000602082840312156107ec57600080fd5b6107f582610794565b9392505050565b60006020828403121561080e57600080fd5b5035919050565b634e487b7160e01b600052602160045260246000fd5b6000815180845260005b8181101561085157602081850181015186830182015201610835565b506000602082860101526020601f19601f83011685010191505092915050565b6001600160a01b0389168152875160009061014090600481106108a457634e487b7160e01b600052602160045260246000fd5b8060208501525060208a0151604084015260408a015160608401528860808401528060a08401526108d78184018961082b565b9150508560c08301528460e083015283610100830152826101208301529998505050505050505050565b600181811c9082168061091557607f821691505b60208210810361093557634e487b7160e01b600052602260045260246000fd5b50919050565b6020808252602b908201527f496e697469616c697a61626c653a20636f6e7472616374206973206e6f74206960408201526a6e697469616c697a696e6760a81b60608201526080019056fea26469706673582212204b155cd6944cfb987e140a43207fc51f93b79423b7d300a6acca28d88ffbf12464736f6c63430008130033",
    "linkReferences": {}
  },
  "methodIdentifiers": {
    "accessManager()": "fdcb6068",
    "addInvestment()": "2278112e",
    "claimAllocation()": "d2d1fb25",
    "computeUserTotalAllocationForInvesment()": "565c6f95",
    "getTotalClaimedForInvestment()": "cf5a4b50",
    "getUserInvestmentIds()": "2cd9a6fa",
    "initialize()": "8129fc1c",
    "invest()": "e8b5e51f",
    "investments(uint256)": "fd345c8a",
    "manualAddContribution()": "fc825c59",
    "modifyInvestment()": "49cd1e93",
    "owner()": "8da5cb5b",
    "paused()": "5c975abb",
    "removeInvestment()": "5fa67110",
    "renounceOwnership()": "715018a6",
    "saftWalletFactory()": "e8da3330",
    "setAccessManager()": "122d19a4",
    "setInvestmentPhase()": "e691108b",
    "setSAFTWalletFactory()": "4bca580d",
    "transferOwnership(address)": "f2fde38b",
    "userInvestments(address,uint256)": "9244adcd"
  },
  "id": 1
}