{
  "abi": [
    {
      "inputs": [],
      "stateMutability": "nonpayable",
      "type": "constructor"
    },
    {
      "anonymous": false,
      "inputs": [],
      "name": "AccessManagerSet",
      "type": "event"
    },
    {
      "anonymous": false,
      "inputs": [
        {
          "indexed": false,
          "internalType": "uint8",
          "name": "version",
          "type": "uint8"
        }
      ],
      "name": "Initialized",
      "type": "event"
    },
    {
      "anonymous": false,
      "inputs": [],
      "name": "InvestmentAdded",
      "type": "event"
    },
    {
      "anonymous": false,
      "inputs": [],
      "name": "InvestmentModified",
      "type": "event"
    },
    {
      "anonymous": false,
      "inputs": [],
      "name": "InvestmentPhaseSet",
      "type": "event"
    },
    {
      "anonymous": false,
      "inputs": [],
      "name": "InvestmentRemoved",
      "type": "event"
    },
    {
      "anonymous": false,
      "inputs": [
        {
          "indexed": true,
          "internalType": "address",
          "name": "previousOwner",
          "type": "address"
        },
        {
          "indexed": true,
          "internalType": "address",
          "name": "newOwner",
          "type": "address"
        }
      ],
      "name": "OwnershipTransferred",
      "type": "event"
    },
    {
      "anonymous": false,
      "inputs": [],
      "name": "SAFTWalletFactorySet",
      "type": "event"
    },
    {
      "inputs": [],
      "name": "accessManager",
      "outputs": [
        {
          "internalType": "contract IAccessManager",
          "name": "",
          "type": "address"
        }
      ],
      "stateMutability": "view",
      "type": "function"
    },
    {
      "inputs": [],
      "name": "addInvestment",
      "outputs": [],
      "stateMutability": "nonpayable",
      "type": "function"
    },
    {
      "inputs": [],
      "name": "claimAllocation",
      "outputs": [],
      "stateMutability": "nonpayable",
      "type": "function"
    },
    {
      "inputs": [],
      "name": "computeUserTotalAllocationForInvesment",
      "outputs": [
        {
          "internalType": "uint256",
          "name": "",
          "type": "uint256"
        }
      ],
      "stateMutability": "view",
      "type": "function"
    },
    {
      "inputs": [],
      "name": "getTotalClaimedForInvestment",
      "outputs": [
        {
          "internalType": "uint256",
          "name": "",
          "type": "uint256"
        }
      ],
      "stateMutability": "view",
      "type": "function"
    },
    {
      "inputs": [],
      "name": "getUserInvestmentIds",
      "outputs": [
        {
          "internalType": "uint256[]",
          "name": "",
          "type": "uint256[]"
        }
      ],
      "stateMutability": "view",
      "type": "function"
    },
    {
      "inputs": [],
      "name": "initialize",
      "outputs": [],
      "stateMutability": "nonpayable",
      "type": "function"
    },
    {
      "inputs": [],
      "name": "invest",
      "outputs": [],
      "stateMutability": "nonpayable",
      "type": "function"
    },
    {
      "inputs": [
        {
          "internalType": "uint256",
          "name": "",
          "type": "uint256"
        }
      ],
      "name": "investments",
      "outputs": [
        {
          "internalType": "address",
          "name": "projectToken",
          "type": "address"
        },
        {
          "components": [
            {
              "internalType": "enum InvestmentHandler.Phase",
              "name": "phase",
              "type": "uint8"
            },
            {
              "internalType": "uint256",
              "name": "startTime",
              "type": "uint256"
            },
            {
              "internalType": "uint256",
              "name": "endTime",
              "type": "uint256"
            }
          ],
          "internalType": "struct InvestmentHandler.AllocationPhase",
          "name": "allocationPhase",
          "type": "tuple"
        },
        {
          "internalType": "bytes32",
          "name": "root",
          "type": "bytes32"
        },
        {
          "internalType": "string",
          "name": "name",
          "type": "string"
        },
        {
          "internalType": "uint256",
          "name": "totalInvestedUsd",
          "type": "uint256"
        },
        {
          "internalType": "uint256",
          "name": "totalAllocatedUsd",
          "type": "uint256"
        },
        {
          "internalType": "uint256",
          "name": "totalTokensClaimed",
          "type": "uint256"
        },
        {
          "internalType": "uint256",
          "name": "totalTokensAllocated",
          "type": "uint256"
        }
      ],
      "stateMutability": "view",
      "type": "function"
    },
    {
      "inputs": [],
      "name": "modifyInvestment",
      "outputs": [],
      "stateMutability": "nonpayable",
      "type": "function"
    },
    {
      "inputs": [],
      "name": "owner",
      "outputs": [
        {
          "internalType": "address",
          "name": "",
          "type": "address"
        }
      ],
      "stateMutability": "view",
      "type": "function"
    },
    {
      "inputs": [],
      "name": "removeInvestment",
      "outputs": [],
      "stateMutability": "nonpayable",
      "type": "function"
    },
    {
      "inputs": [],
      "name": "renounceOwnership",
      "outputs": [],
      "stateMutability": "nonpayable",
      "type": "function"
    },
    {
      "inputs": [],
      "name": "saftWalletFactory",
      "outputs": [
        {
          "internalType": "contract ISAFTWalletFactory",
          "name": "",
          "type": "address"
        }
      ],
      "stateMutability": "view",
      "type": "function"
    },
    {
      "inputs": [],
      "name": "setAccessManager",
      "outputs": [],
      "stateMutability": "nonpayable",
      "type": "function"
    },
    {
      "inputs": [],
      "name": "setInvestmentPhase",
      "outputs": [],
      "stateMutability": "nonpayable",
      "type": "function"
    },
    {
      "inputs": [],
      "name": "setSAFTWalletFactory",
      "outputs": [],
      "stateMutability": "nonpayable",
      "type": "function"
    },
    {
      "inputs": [
        {
          "internalType": "address",
          "name": "newOwner",
          "type": "address"
        }
      ],
      "name": "transferOwnership",
      "outputs": [],
      "stateMutability": "nonpayable",
      "type": "function"
    },
    {
      "inputs": [
        {
          "internalType": "address",
          "name": "",
          "type": "address"
        },
        {
          "internalType": "uint256",
          "name": "",
          "type": "uint256"
        }
      ],
      "name": "userInvestments",
      "outputs": [
        {
          "internalType": "uint256",
          "name": "totalInvestedUsd",
          "type": "uint256"
        },
        {
          "internalType": "uint256",
          "name": "totalAllocatedUsd",
          "type": "uint256"
        },
        {
          "internalType": "uint256",
          "name": "totalTokensClaimed",
          "type": "uint256"
        },
        {
          "internalType": "uint256",
          "name": "totalTokensAllocated",
          "type": "uint256"
        }
      ],
      "stateMutability": "view",
      "type": "function"
    }
  ],
  "bytecode": {
    "object": "0x608060405234801561001057600080fd5b5061001961001e565b6100dd565b600054610100900460ff161561008a5760405162461bcd60e51b815260206004820152602760248201527f496e697469616c697a61626c653a20636f6e747261637420697320696e697469604482015266616c697a696e6760c81b606482015260840160405180910390fd5b60005460ff908116146100db576000805460ff191660ff9081179091556040519081527f7f26b83ff96e1f2b6a682f133852f6798a09c465da95921460cefb38474024989060200160405180910390a15b565b610874806100ec6000396000f3fe608060405234801561001057600080fd5b50600436106101215760003560e01c80638da5cb5b116100ad578063e8b5e51f11610071578063e8b5e51f14610126578063e8da3330146101e4578063f2fde38b146101f7578063fd345c8a1461020a578063fdcb60681461023157600080fd5b80638da5cb5b1461015f5780639244adcd14610184578063cf5a4b5014610140578063d2d1fb2514610126578063e691108b1461012657600080fd5b80634bca580d116100f45780634bca580d14610126578063565c6f95146101405780635fa6711014610126578063715018a61461014f5780638129fc1c1461015757600080fd5b8063122d19a4146101265780632278112e146101265780632cd9a6fa1461012857806349cd1e9314610126575b600080fd5b005b60606040516101379190610608565b60405180910390f35b60405160008152602001610137565b610126610246565b610126610258565b6033546001600160a01b03165b6040516001600160a01b039091168152602001610137565b6101c4610192366004610668565b606860209081526000928352604080842090915290825290208054600182015460028301546003909301549192909184565b604080519485526020850193909352918301526060820152608001610137565b60665461016c906001600160a01b031681565b610126610205366004610692565b61036e565b61021d6102183660046106b4565b6103e4565b604051610137989796959493929190610729565b60655461016c906001600160a01b031681565b565b61024e610502565b610244600061055c565b600054610100900460ff16158080156102785750600054600160ff909116105b806102925750303b158015610292575060005460ff166001145b6102fa5760405162461bcd60e51b815260206004820152602e60248201527f496e697469616c697a61626c653a20636f6e747261637420697320616c72656160448201526d191e481a5b9a5d1a585b1a5e995960921b60648201526084015b60405180910390fd5b6000805460ff19166001179055801561031d576000805461ff0019166101001790555b6103256105ae565b801561036b576000805461ff0019169055604051600181527f7f26b83ff96e1f2b6a682f133852f6798a09c465da95921460cefb38474024989060200160405180910390a15b50565b610376610502565b6001600160a01b0381166103db5760405162461bcd60e51b815260206004820152602660248201527f4f776e61626c653a206e6577206f776e657220697320746865207a65726f206160448201526564647265737360d01b60648201526084016102f1565b61036b8161055c565b6067602052600090815260409081902080548251606081019093526001820180546001600160a01b039092169391829060ff166003811115610428576104286106cd565b6003811115610439576104396106cd565b81526020016001820154815260200160028201548152505090806004015490806005018054610467906107b9565b80601f0160208091040260200160405190810160405280929190818152602001828054610493906107b9565b80156104e05780601f106104b5576101008083540402835291602001916104e0565b820191906000526020600020905b8154815290600101906020018083116104c357829003601f168201915b5050505050908060060154908060070154908060080154908060090154905088565b6033546001600160a01b031633146102445760405162461bcd60e51b815260206004820181905260248201527f4f776e61626c653a2063616c6c6572206973206e6f7420746865206f776e657260448201526064016102f1565b603380546001600160a01b038381166001600160a01b0319831681179093556040519116919082907f8be0079c531659141344cd1fd0a4f28419497f9722a3daafe3b4186f6b6457e090600090a35050565b600054610100900460ff166105d55760405162461bcd60e51b81526004016102f1906107f3565b610244600054610100900460ff166105ff5760405162461bcd60e51b81526004016102f1906107f3565b6102443361055c565b6020808252825182820181905260009190848201906040850190845b8181101561064057835183529284019291840191600101610624565b50909695505050505050565b80356001600160a01b038116811461066357600080fd5b919050565b6000806040838503121561067b57600080fd5b6106848361064c565b946020939093013593505050565b6000602082840312156106a457600080fd5b6106ad8261064c565b9392505050565b6000602082840312156106c657600080fd5b5035919050565b634e487b7160e01b600052602160045260246000fd5b6000815180845260005b81811015610709576020818501810151868301820152016106ed565b506000602082860101526020601f19601f83011685010191505092915050565b6001600160a01b03891681528751600090610140906004811061075c57634e487b7160e01b600052602160045260246000fd5b8060208501525060208a0151604084015260408a015160608401528860808401528060a084015261078f818401896106e3565b9150508560c08301528460e083015283610100830152826101208301529998505050505050505050565b600181811c908216806107cd57607f821691505b6020821081036107ed57634e487b7160e01b600052602260045260246000fd5b50919050565b6020808252602b908201527f496e697469616c697a61626c653a20636f6e7472616374206973206e6f74206960408201526a6e697469616c697a696e6760a81b60608201526080019056fea26469706673582212209df0870bfd6b120d827f03609bda47caffcc0deb9306b6455f79ecb999e6d63064736f6c63430008130033",
    "linkReferences": {}
  },
  "methodIdentifiers": {
    "accessManager()": "fdcb6068",
    "addInvestment()": "2278112e",
    "claimAllocation()": "d2d1fb25",
    "computeUserTotalAllocationForInvesment()": "565c6f95",
    "getTotalClaimedForInvestment()": "cf5a4b50",
    "getUserInvestmentIds()": "2cd9a6fa",
    "initialize()": "8129fc1c",
    "invest()": "e8b5e51f",
    "investments(uint256)": "fd345c8a",
    "modifyInvestment()": "49cd1e93",
    "owner()": "8da5cb5b",
    "removeInvestment()": "5fa67110",
    "renounceOwnership()": "715018a6",
    "saftWalletFactory()": "e8da3330",
    "setAccessManager()": "122d19a4",
    "setInvestmentPhase()": "e691108b",
    "setSAFTWalletFactory()": "4bca580d",
    "transferOwnership(address)": "f2fde38b",
    "userInvestments(address,uint256)": "9244adcd"
  },
  "id": 0
}