{
  "abi": [
    {
      "inputs": [],
      "stateMutability": "nonpayable",
      "type": "constructor"
    },
    {
      "inputs": [],
      "name": "ClaimAmountExceedsTotalClaimable",
      "type": "error"
    },
    {
      "inputs": [],
      "name": "InsufficientAllowance",
      "type": "error"
    },
    {
      "inputs": [],
      "name": "InvalidSignature",
      "type": "error"
    },
    {
      "inputs": [],
      "name": "InvestmentAmountExceedsMax",
      "type": "error"
    },
    {
      "inputs": [],
      "name": "InvestmentIsNotOpen",
      "type": "error"
    },
    {
      "anonymous": false,
      "inputs": [
        {
          "indexed": false,
          "internalType": "uint8",
          "name": "version",
          "type": "uint8"
        }
      ],
      "name": "Initialized",
      "type": "event"
    },
    {
      "anonymous": false,
      "inputs": [],
      "name": "InvestmentAdded",
      "type": "event"
    },
    {
      "anonymous": false,
      "inputs": [],
      "name": "InvestmentModified",
      "type": "event"
    },
    {
      "anonymous": false,
      "inputs": [],
      "name": "InvestmentPhaseSet",
      "type": "event"
    },
    {
      "anonymous": false,
      "inputs": [],
      "name": "InvestmentRemoved",
      "type": "event"
    },
    {
      "anonymous": false,
      "inputs": [
        {
          "indexed": false,
          "internalType": "address",
          "name": "account",
          "type": "address"
        }
      ],
      "name": "Paused",
      "type": "event"
    },
    {
      "anonymous": false,
      "inputs": [
        {
          "indexed": true,
          "internalType": "bytes32",
          "name": "role",
          "type": "bytes32"
        },
        {
          "indexed": true,
          "internalType": "bytes32",
          "name": "previousAdminRole",
          "type": "bytes32"
        },
        {
          "indexed": true,
          "internalType": "bytes32",
          "name": "newAdminRole",
          "type": "bytes32"
        }
      ],
      "name": "RoleAdminChanged",
      "type": "event"
    },
    {
      "anonymous": false,
      "inputs": [
        {
          "indexed": true,
          "internalType": "bytes32",
          "name": "role",
          "type": "bytes32"
        },
        {
          "indexed": true,
          "internalType": "address",
          "name": "account",
          "type": "address"
        },
        {
          "indexed": true,
          "internalType": "address",
          "name": "sender",
          "type": "address"
        }
      ],
      "name": "RoleGranted",
      "type": "event"
    },
    {
      "anonymous": false,
      "inputs": [
        {
          "indexed": true,
          "internalType": "bytes32",
          "name": "role",
          "type": "bytes32"
        },
        {
          "indexed": true,
          "internalType": "address",
          "name": "account",
          "type": "address"
        },
        {
          "indexed": true,
          "internalType": "address",
          "name": "sender",
          "type": "address"
        }
      ],
      "name": "RoleRevoked",
      "type": "event"
    },
    {
      "anonymous": false,
      "inputs": [
        {
          "indexed": false,
          "internalType": "address",
          "name": "account",
          "type": "address"
        }
      ],
      "name": "Unpaused",
      "type": "event"
    },
    {
      "anonymous": false,
      "inputs": [
        {
          "indexed": true,
          "internalType": "address",
          "name": "user",
          "type": "address"
        },
        {
          "indexed": true,
          "internalType": "uint256",
          "name": "investmentId",
          "type": "uint256"
        },
        {
          "indexed": false,
          "internalType": "uint256",
          "name": "amount",
          "type": "uint256"
        }
      ],
      "name": "UserContributionToInvestment",
      "type": "event"
    },
    {
      "anonymous": false,
      "inputs": [
        {
          "indexed": true,
          "internalType": "address",
          "name": "user",
          "type": "address"
        },
        {
          "indexed": true,
          "internalType": "uint256",
          "name": "investmentId",
          "type": "uint256"
        },
        {
          "indexed": false,
          "internalType": "uint256",
          "name": "amount",
          "type": "uint256"
        }
      ],
      "name": "UserTokenClaim",
      "type": "event"
    },
    {
      "inputs": [],
      "name": "DEFAULT_ADMIN_ROLE",
      "outputs": [
        {
          "internalType": "bytes32",
          "name": "",
          "type": "bytes32"
        }
      ],
      "stateMutability": "view",
      "type": "function"
    },
    {
      "inputs": [],
      "name": "addInvestment",
      "outputs": [],
      "stateMutability": "nonpayable",
      "type": "function"
    },
    {
      "inputs": [
        {
          "internalType": "address",
          "name": "signer",
          "type": "address"
        },
        {
          "internalType": "address",
          "name": "user",
          "type": "address"
        },
        {
          "internalType": "uint256",
          "name": "maxInvestableAmount",
          "type": "uint256"
        },
        {
          "internalType": "bytes",
          "name": "signature",
          "type": "bytes"
        }
      ],
      "name": "checkSignature",
      "outputs": [
        {
          "internalType": "bool",
          "name": "",
          "type": "bool"
        }
      ],
      "stateMutability": "view",
      "type": "function"
    },
    {
      "inputs": [
        {
          "internalType": "uint256",
          "name": "investmentId",
          "type": "uint256"
        },
        {
          "internalType": "uint256",
          "name": "claimAmount",
          "type": "uint256"
        }
      ],
      "name": "claim",
      "outputs": [],
      "stateMutability": "nonpayable",
      "type": "function"
    },
    {
      "inputs": [],
      "name": "computeUserTotalAllocationForInvesment",
      "outputs": [
        {
          "internalType": "uint256",
          "name": "",
          "type": "uint256"
        }
      ],
      "stateMutability": "view",
      "type": "function"
    },
    {
      "inputs": [
        {
          "internalType": "bytes32",
          "name": "role",
          "type": "bytes32"
        }
      ],
      "name": "getRoleAdmin",
      "outputs": [
        {
          "internalType": "bytes32",
          "name": "",
          "type": "bytes32"
        }
      ],
      "stateMutability": "view",
      "type": "function"
    },
    {
      "inputs": [],
      "name": "getTotalClaimedForInvestment",
      "outputs": [
        {
          "internalType": "uint256",
          "name": "",
          "type": "uint256"
        }
      ],
      "stateMutability": "view",
      "type": "function"
    },
    {
      "inputs": [],
      "name": "getUserInvestmentIds",
      "outputs": [
        {
          "internalType": "uint256[]",
          "name": "",
          "type": "uint256[]"
        }
      ],
      "stateMutability": "view",
      "type": "function"
    },
    {
      "inputs": [
        {
          "internalType": "bytes32",
          "name": "role",
          "type": "bytes32"
        },
        {
          "internalType": "address",
          "name": "account",
          "type": "address"
        }
      ],
      "name": "grantRole",
      "outputs": [],
      "stateMutability": "nonpayable",
      "type": "function"
    },
    {
      "inputs": [
        {
          "internalType": "bytes32",
          "name": "role",
          "type": "bytes32"
        },
        {
          "internalType": "address",
          "name": "account",
          "type": "address"
        }
      ],
      "name": "hasRole",
      "outputs": [
        {
          "internalType": "bool",
          "name": "",
          "type": "bool"
        }
      ],
      "stateMutability": "view",
      "type": "function"
    },
    {
      "inputs": [],
      "name": "initialize",
      "outputs": [],
      "stateMutability": "nonpayable",
      "type": "function"
    },
    {
      "inputs": [
        {
          "internalType": "uint256",
          "name": "investmentId",
          "type": "uint256"
        },
        {
          "internalType": "uint256",
          "name": "maxInvestableAmount",
          "type": "uint256"
        },
        {
          "internalType": "uint256",
          "name": "thisInvestmentAmount",
          "type": "uint256"
        },
        {
          "internalType": "bytes",
          "name": "signature",
          "type": "bytes"
        }
      ],
      "name": "invest",
      "outputs": [],
      "stateMutability": "nonpayable",
      "type": "function"
    },
    {
      "inputs": [
        {
          "internalType": "uint256",
          "name": "investmentId",
          "type": "uint256"
        }
      ],
      "name": "investmentIsOpne",
      "outputs": [
        {
          "internalType": "bool",
          "name": "",
          "type": "bool"
        }
      ],
      "stateMutability": "view",
      "type": "function"
    },
    {
      "inputs": [
        {
          "internalType": "uint256",
          "name": "",
          "type": "uint256"
        }
      ],
      "name": "investments",
      "outputs": [
        {
          "internalType": "address",
          "name": "signer",
          "type": "address"
        },
        {
          "components": [
            {
              "internalType": "enum InvestmentHandler.Phase",
              "name": "phase",
              "type": "uint8"
            },
            {
              "internalType": "uint256",
              "name": "startTime",
              "type": "uint256"
            },
            {
              "internalType": "uint256",
              "name": "endTime",
              "type": "uint256"
            }
          ],
          "internalType": "struct InvestmentHandler.ContributionPhase",
          "name": "contributionPhase",
          "type": "tuple"
        },
        {
          "internalType": "contract IERC20",
          "name": "projectToken",
          "type": "address"
        },
        {
          "internalType": "contract IERC20",
          "name": "stablecoin",
          "type": "address"
        },
        {
          "internalType": "uint256",
          "name": "totalInvestedUsd",
          "type": "uint256"
        },
        {
          "internalType": "uint256",
          "name": "totalAllocatedUsd",
          "type": "uint256"
        },
        {
          "internalType": "uint256",
          "name": "totalTokensClaimed",
          "type": "uint256"
        },
        {
          "internalType": "uint256",
          "name": "totalTokensAllocated",
          "type": "uint256"
        }
      ],
      "stateMutability": "view",
      "type": "function"
    },
    {
      "inputs": [],
      "name": "manualAddContribution",
      "outputs": [],
      "stateMutability": "nonpayable",
      "type": "function"
    },
    {
      "inputs": [],
      "name": "modifyInvestment",
      "outputs": [],
      "stateMutability": "nonpayable",
      "type": "function"
    },
    {
      "inputs": [],
      "name": "paused",
      "outputs": [
        {
          "internalType": "bool",
          "name": "",
          "type": "bool"
        }
      ],
      "stateMutability": "view",
      "type": "function"
    },
    {
      "inputs": [],
      "name": "refundUser",
      "outputs": [],
      "stateMutability": "nonpayable",
      "type": "function"
    },
    {
      "inputs": [],
      "name": "removeInvestment",
      "outputs": [],
      "stateMutability": "nonpayable",
      "type": "function"
    },
    {
      "inputs": [
        {
          "internalType": "bytes32",
          "name": "role",
          "type": "bytes32"
        },
        {
          "internalType": "address",
          "name": "account",
          "type": "address"
        }
      ],
      "name": "renounceRole",
      "outputs": [],
      "stateMutability": "nonpayable",
      "type": "function"
    },
    {
      "inputs": [
        {
          "internalType": "bytes32",
          "name": "role",
          "type": "bytes32"
        },
        {
          "internalType": "address",
          "name": "account",
          "type": "address"
        }
      ],
      "name": "revokeRole",
      "outputs": [],
      "stateMutability": "nonpayable",
      "type": "function"
    },
    {
      "inputs": [],
      "name": "setInvestmentPhase",
      "outputs": [],
      "stateMutability": "nonpayable",
      "type": "function"
    },
    {
      "inputs": [
        {
          "internalType": "bytes4",
          "name": "interfaceId",
          "type": "bytes4"
        }
      ],
      "name": "supportsInterface",
      "outputs": [
        {
          "internalType": "bool",
          "name": "",
          "type": "bool"
        }
      ],
      "stateMutability": "view",
      "type": "function"
    },
    {
      "inputs": [
        {
          "internalType": "address",
          "name": "",
          "type": "address"
        },
        {
          "internalType": "uint256",
          "name": "",
          "type": "uint256"
        }
      ],
      "name": "userInvestments",
      "outputs": [
        {
          "internalType": "uint256",
          "name": "totalInvestedUsd",
          "type": "uint256"
        },
        {
          "internalType": "uint256",
          "name": "pledgeDebt",
          "type": "uint256"
        },
        {
          "internalType": "uint256",
          "name": "totalTokensClaimed",
          "type": "uint256"
        }
      ],
      "stateMutability": "view",
      "type": "function"
    }
  ],
  "bytecode": {
    "object": "0x608060405234801561001057600080fd5b5061001961001e565b6100dd565b600054610100900460ff161561008a5760405162461bcd60e51b815260206004820152602760248201527f496e697469616c697a61626c653a20636f6e747261637420697320696e697469604482015266616c697a696e6760c81b606482015260840160405180910390fd5b60005460ff908116146100db576000805460ff191660ff9081179091556040519081527f7f26b83ff96e1f2b6a682f133852f6798a09c465da95921460cefb38474024989060200160405180910390a15b565b611d64806100ec6000396000f3fe608060405234801561001057600080fd5b50600436106101585760003560e01c80635fa67110116100c3578063cf5a4b501161007c578063cf5a4b5014610208578063d547741f146102b8578063e691108b14610185578063edcc1c1e146102cb578063fc825c5914610185578063fd345c8a146102de57600080fd5b80635fa67110146101855780638129fc1c1461022d57806391d14854146102355780639244adcd14610248578063a217fddf1461029d578063c3490263146102a557600080fd5b806336568abe1161011557806336568abe146101e2578063460de383146101f557806349cd1e9314610185578063565c6f9514610208578063580c80e91461020f5780635c975abb1461022257600080fd5b806301ffc9a71461015d57806309e079aa146101855780632278112e14610185578063248a9ca31461018f5780632cd9a6fa146101c05780632f2ff15d146101cf575b600080fd5b61017061016b366004611772565b610305565b60405190151581526020015b60405180910390f35b61018d61033c565b005b6101b261019d36600461179c565b60009081526065602052604090206001015490565b60405190815260200161017c565b606060405161017c91906117b5565b61018d6101dd366004611815565b61034b565b61018d6101f0366004611815565b610375565b610170610203366004611857565b6103f8565b60006101b2565b61017061021d36600461179c565b610484565b60975460ff16610170565b61018d6104a4565b610170610243366004611815565b610647565b610282610256366004611933565b60ff60209081526000928352604080842090915290825290208054600182015460029092015490919083565b6040805193845260208401929092529082015260600161017c565b6101b2600081565b61018d6102b336600461195d565b610672565b61018d6102c6366004611815565b610791565b61018d6102d936600461197f565b6107b6565b6102f16102ec36600461179c565b610dd9565b60405161017c989796959493929190611a22565b60006001600160e01b03198216637965db0b60e01b148061033657506301ffc9a760e01b6001600160e01b03198316145b92915050565b60fd5461034881610e7f565b50565b60008281526065602052604090206001015461036681610e7f565b6103708383610e89565b505050565b6001600160a01b03811633146103ea5760405162461bcd60e51b815260206004820152602f60248201527f416363657373436f6e74726f6c3a2063616e206f6e6c792072656e6f756e636560448201526e103937b632b9903337b91039b2b63360891b60648201526084015b60405180910390fd5b6103f48282610f0f565b5050565b6040516bffffffffffffffffffffffff19606085901b1660208201526034810183905260009061047b908690610475906054015b604051602081830303815290604052805190602001207f19457468657265756d205369676e6564204d6573736167653a0a3332000000006000908152601c91909152603c902090565b84610f76565b95945050505050565b600081815260fe602052604081206001015461033690839060ff16610fd9565b600054610100900460ff16158080156104c45750600054600160ff909116105b806104de5750303b1580156104de575060005460ff166001145b6105415760405162461bcd60e51b815260206004820152602e60248201527f496e697469616c697a61626c653a20636f6e747261637420697320616c72656160448201526d191e481a5b9a5d1a585b1a5e995960921b60648201526084016103e1565b6000805460ff191660011790558015610564576000805461ff0019166101001790555b61056c61101b565b610574611044565b61057c611073565b7f241ecf16d79d0f8dbfb92cbc07fe17840425976cf0667f022fe9877caa831b0860fd556105ab6000336110a2565b6105b760fd54336110a2565b60fb80546001600160a01b031990811673a0b86991c6218b36c1d19d4a2e9eb0ce3606eb481790915560fc805490911673dac17f958d2ee523a2206206994597c13d831ec71790558015610348576000805461ff0019169055604051600181527f7f26b83ff96e1f2b6a682f133852f6798a09c465da95921460cefb38474024989060200160405180910390a150565b60009182526065602090815260408084206001600160a01b0393909316845291905290205460ff1690565b818161067f3383836110ac565b5033600090815260ff60209081526040808320878452825280832060fe9092528220600282018054929391928792906106b9908490611acf565b92505081905550848160080160008282546106d49190611acf565b909155505060048181015460405163a9059cbb60e01b81523392810192909252602482018790526001600160a01b03169063a9059cbb906044016020604051808303816000875af115801561072d573d6000803e3d6000fd5b505050506040513d601f19601f820116820180604052508101906107519190611ae2565b50604051858152869033907fa9b86e41f9e6c0643fb61c7f29acc09fbc04b6fd59566be03aeef737c6cd78139060200160405180910390a3505050505050565b6000828152606560205260409020600101546107ac81610e7f565b6103708383610f0f565b6107be6111d2565b84848484848080601f016020809104026020016040519081016040528093929190818152602001838380828437600092018290525087815260fe6020526040902060010154610815935087925060ff169050610fd9565b156109285733600090815260ff602090815260408083208c8452825280832060fe90925282208154919290918a918491610850908490611acf565b90915550508154610861908b611b04565b82600101819055508881600601600082825461087d9190611acf565b909155505060058101546040516323b872dd60e01b81526001600160a01b03909116906323b872dd906108b890339030908e90600401611b17565b6020604051808303816000875af11580156108d7573d6000803e3d6000fd5b505050506040513d601f19601f820116820180604052508101906108fb9190611ae2565b506040518981528b903390600080516020611d0f8339815191529060200160405180910390a35050610941565b6040516322e0277d60e01b815260040160405180910390fd5b600084815260fe60209081526040918290205491516bffffffffffffffffffffffff193360601b169181019190915260348101859052610997916001600160a01b0316906109919060540161042c565b83610f76565b15610aaa5733600090815260ff602090815260408083208c8452825280832060fe90925282208154919290918a9184916109d2908490611acf565b909155505081546109e3908b611b04565b8260010181905550888160060160008282546109ff9190611acf565b909155505060058101546040516323b872dd60e01b81526001600160a01b03909116906323b872dd90610a3a90339030908e90600401611b17565b6020604051808303816000875af1158015610a59573d6000803e3d6000fd5b505050506040513d601f19601f82011682018060405250810190610a7d9190611ae2565b506040518981528b903390600080516020611d0f8339815191529060200160405180910390a35050610ac3565b604051638baa579f60e01b815260040160405180910390fd5b600084815260fe602052604090819020600501549051636eb1769f60e11b815233600482015230602482015283916001600160a01b03169063dd62ed3e90604401602060405180830381865afa158015610b21573d6000803e3d6000fd5b505050506040513d601f19601f82011682018060405250810190610b459190611b3b565b10610c585733600090815260ff602090815260408083208c8452825280832060fe90925282208154919290918a918491610b80908490611acf565b90915550508154610b91908b611b04565b826001018190555088816006016000828254610bad9190611acf565b909155505060058101546040516323b872dd60e01b81526001600160a01b03909116906323b872dd90610be890339030908e90600401611b17565b6020604051808303816000875af1158015610c07573d6000803e3d6000fd5b505050506040513d601f19601f82011682018060405250810190610c2b9190611ae2565b506040518981528b903390600080516020611d0f8339815191529060200160405180910390a35050610c71565b6040516313be252b60e01b815260040160405180910390fd5b33600090815260ff602090815260408083208784529091529020548390610c989084611acf565b11610dab5733600090815260ff602090815260408083208c8452825280832060fe90925282208154919290918a918491610cd3908490611acf565b90915550508154610ce4908b611b04565b826001018190555088816006016000828254610d009190611acf565b909155505060058101546040516323b872dd60e01b81526001600160a01b03909116906323b872dd90610d3b90339030908e90600401611b17565b6020604051808303816000875af1158015610d5a573d6000803e3d6000fd5b505050506040513d601f19601f82011682018060405250810190610d7e9190611ae2565b506040518981528b903390600080516020611d0f8339815191529060200160405180910390a35050610dc4565b60405163f243c66d60e01b815260040160405180910390fd5b50505050610dd2600160c955565b5050505050565b60fe602052600090815260409081902080548251606081019093526001820180546001600160a01b039092169391829060ff166003811115610e1d57610e1d611a0c565b6003811115610e2e57610e2e611a0c565b8152600182015460208201526002909101546040909101526004820154600583015460068401546007850154600886015460099096015494956001600160a01b039485169594909316939192909188565b6103488133611232565b610e938282610647565b6103f45760008281526065602090815260408083206001600160a01b03851684529091529020805460ff19166001179055610ecb3390565b6001600160a01b0316816001600160a01b0316837f2f8788117e7eff1d82e926ec794901d17c78024a50270940304540a733656f0d60405160405180910390a45050565b610f198282610647565b156103f45760008281526065602090815260408083206001600160a01b0385168085529252808320805460ff1916905551339285917ff6391f5c32d9c69d2a47ea670b442974b53935d1edc7fd64eb21e047a839171b9190a45050565b6000806000610f85858561128b565b90925090506000816004811115610f9e57610f9e611a0c565b148015610fbc5750856001600160a01b0316826001600160a01b0316145b80610fcd5750610fcd8686866112d0565b925050505b9392505050565b6000816003811115610fed57610fed611a0c565b600084815260fe602052604090206001015460ff16600381111561101357611013611a0c565b149392505050565b600054610100900460ff166110425760405162461bcd60e51b81526004016103e190611b54565b565b600054610100900460ff1661106b5760405162461bcd60e51b81526004016103e190611b54565b6110426113bc565b600054610100900460ff1661109a5760405162461bcd60e51b81526004016103e190611b54565b6110426113ef565b6103f48282610e89565b600082815260fe6020908152604080832060068101546009909101546001600160a01b038816855260ff84528285208786529093529083208054600290910154919291846110fb848487611416565b9050806111088389611acf565b106111265760405163040af45360e01b815260040160405180910390fd5b600088815260fe602052604080822060049081015491516370a0823160e01b815230918101919091526001600160a01b03909116906370a0823190602401602060405180830381865afa158015611181573d6000803e3d6000fd5b505050506040513d601f19601f820116820180604052508101906111a59190611b3b565b905060006111b4828689611416565b905060006111c28583611b04565b9c9b505050505050505050505050565b600260c954036112245760405162461bcd60e51b815260206004820152601f60248201527f5265656e7472616e637947756172643a207265656e7472616e742063616c6c0060448201526064016103e1565b600260c955565b600160c955565b61123c8282610647565b6103f45761124981611500565b611254836020611512565b604051602001611265929190611bc3565b60408051601f198184030181529082905262461bcd60e51b82526103e191600401611c64565b60008082516041036112c15760208301516040840151606085015160001a6112b5878285856116ae565b945094505050506112c9565b506000905060025b9250929050565b6000806000856001600160a01b0316631626ba7e60e01b86866040516024016112fa929190611c77565b60408051601f198184030181529181526020820180516001600160e01b03166001600160e01b03199094169390931790925290516113389190611c98565b600060405180830381855afa9150503d8060008114611373576040519150601f19603f3d011682016040523d82523d6000602084013e611378565b606091505b509150915081801561138c57506020815110155b8015610fcd57508051630b135d3f60e11b906113b19083016020908101908401611b3b565b149695505050505050565b600054610100900460ff166113e35760405162461bcd60e51b81526004016103e190611b54565b6097805460ff19169055565b600054610100900460ff1661122b5760405162461bcd60e51b81526004016103e190611b54565b60008080600019858709858702925082811083820303915050806000036114505783828161144657611446611cb4565b0492505050610fd2565b8084116114975760405162461bcd60e51b81526020600482015260156024820152744d6174683a206d756c446976206f766572666c6f7760581b60448201526064016103e1565b60008486880960026001871981018816978890046003810283188082028403028082028403028082028403028082028403028082028403029081029092039091026000889003889004909101858311909403939093029303949094049190911702949350505050565b60606103366001600160a01b03831660145b60606000611521836002611cca565b61152c906002611acf565b67ffffffffffffffff81111561154457611544611841565b6040519080825280601f01601f19166020018201604052801561156e576020820181803683370190505b509050600360fc1b8160008151811061158957611589611ce1565b60200101906001600160f81b031916908160001a905350600f60fb1b816001815181106115b8576115b8611ce1565b60200101906001600160f81b031916908160001a90535060006115dc846002611cca565b6115e7906001611acf565b90505b600181111561165f576f181899199a1a9b1b9c1cb0b131b232b360811b85600f166010811061161b5761161b611ce1565b1a60f81b82828151811061163157611631611ce1565b60200101906001600160f81b031916908160001a90535060049490941c9361165881611cf7565b90506115ea565b508315610fd25760405162461bcd60e51b815260206004820181905260248201527f537472696e67733a20686578206c656e67746820696e73756666696369656e7460448201526064016103e1565b6000807f7fffffffffffffffffffffffffffffff5d576e7357a4501ddfe92f46681b20a08311156116e55750600090506003611769565b6040805160008082526020820180845289905260ff881692820192909252606081018690526080810185905260019060a0016020604051602081039080840390855afa158015611739573d6000803e3d6000fd5b5050604051601f1901519150506001600160a01b03811661176257600060019250925050611769565b9150600090505b94509492505050565b60006020828403121561178457600080fd5b81356001600160e01b031981168114610fd257600080fd5b6000602082840312156117ae57600080fd5b5035919050565b6020808252825182820181905260009190848201906040850190845b818110156117ed578351835292840192918401916001016117d1565b50909695505050505050565b80356001600160a01b038116811461181057600080fd5b919050565b6000806040838503121561182857600080fd5b82359150611838602084016117f9565b90509250929050565b634e487b7160e01b600052604160045260246000fd5b6000806000806080858703121561186d57600080fd5b611876856117f9565b9350611884602086016117f9565b925060408501359150606085013567ffffffffffffffff808211156118a857600080fd5b818701915087601f8301126118bc57600080fd5b8135818111156118ce576118ce611841565b604051601f8201601f19908116603f011681019083821181831017156118f6576118f6611841565b816040528281528a602084870101111561190f57600080fd5b82602086016020830137600060208483010152809550505050505092959194509250565b6000806040838503121561194657600080fd5b61194f836117f9565b946020939093013593505050565b6000806040838503121561197057600080fd5b50508035926020909101359150565b60008060008060006080868803121561199757600080fd5b853594506020860135935060408601359250606086013567ffffffffffffffff808211156119c457600080fd5b818801915088601f8301126119d857600080fd5b8135818111156119e757600080fd5b8960208285010111156119f957600080fd5b9699959850939650602001949392505050565b634e487b7160e01b600052602160045260246000fd5b6001600160a01b0389168152875161014082019060048110611a5457634e487b7160e01b600052602160045260246000fd5b806020840152506020890151604083015260408901516060830152611a8460808301896001600160a01b03169052565b6001600160a01b039690961660a082015260c081019490945260e0840192909252610100830152610120909101529392505050565b634e487b7160e01b600052601160045260246000fd5b8082018082111561033657610336611ab9565b600060208284031215611af457600080fd5b81518015158114610fd257600080fd5b8181038181111561033657610336611ab9565b6001600160a01b039384168152919092166020820152604081019190915260600190565b600060208284031215611b4d57600080fd5b5051919050565b6020808252602b908201527f496e697469616c697a61626c653a20636f6e7472616374206973206e6f74206960408201526a6e697469616c697a696e6760a81b606082015260800190565b60005b83811015611bba578181015183820152602001611ba2565b50506000910152565b7f416363657373436f6e74726f6c3a206163636f756e7420000000000000000000815260008351611bfb816017850160208801611b9f565b7001034b99036b4b9b9b4b733903937b6329607d1b6017918401918201528351611c2c816028840160208801611b9f565b01602801949350505050565b60008151808452611c50816020860160208601611b9f565b601f01601f19169290920160200192915050565b602081526000610fd26020830184611c38565b828152604060208201526000611c906040830184611c38565b949350505050565b60008251611caa818460208701611b9f565b9190910192915050565b634e487b7160e01b600052601260045260246000fd5b808202811582820484141761033657610336611ab9565b634e487b7160e01b600052603260045260246000fd5b600081611d0657611d06611ab9565b50600019019056fe1e32e030deb75851506240eb6d660a76d91fdd4c7f9a7b3be7daeea771300485a26469706673582212209496af361a0ce2d6536876e3f727e636061f7d851ff5015b8734eff808ffd29b64736f6c63430008130033",
    "linkReferences": {}
  },
  "methodIdentifiers": {
    "DEFAULT_ADMIN_ROLE()": "a217fddf",
    "addInvestment()": "2278112e",
    "checkSignature(address,address,uint256,bytes)": "460de383",
    "claim(uint256,uint256)": "c3490263",
    "computeUserTotalAllocationForInvesment()": "565c6f95",
    "getRoleAdmin(bytes32)": "248a9ca3",
    "getTotalClaimedForInvestment()": "cf5a4b50",
    "getUserInvestmentIds()": "2cd9a6fa",
    "grantRole(bytes32,address)": "2f2ff15d",
    "hasRole(bytes32,address)": "91d14854",
    "initialize()": "8129fc1c",
    "invest(uint256,uint256,uint256,bytes)": "edcc1c1e",
    "investmentIsOpne(uint256)": "580c80e9",
    "investments(uint256)": "fd345c8a",
    "manualAddContribution()": "fc825c59",
    "modifyInvestment()": "49cd1e93",
    "paused()": "5c975abb",
    "refundUser()": "09e079aa",
    "removeInvestment()": "5fa67110",
    "renounceRole(bytes32,address)": "36568abe",
    "revokeRole(bytes32,address)": "d547741f",
    "setInvestmentPhase()": "e691108b",
    "supportsInterface(bytes4)": "01ffc9a7",
    "userInvestments(address,uint256)": "9244adcd"
  },
  "id": 0
}